:020000040000fa
:10000000f87f0020a5200200db710100937701003a
:1000100000000000000000000000000000000000e0
:100020000000000000000000000000003b5901003b
:1000300000000000000000003b5901003b59010096
:100040003b5901003b5901003b5901003b5901005c
:10005000cd1f02003b59010029e601003b59010078
:100060003b5901003b590100312601000904010000
:1000700011d6000000000000000000003b59010004
:100080003b5901003b590100414b02003b59010023
:10009000654b020000000000000000003b59010019
:1000a0003b5901003b5901003b5901003b590100fc
:020000040000fa
:1000b000f8b5c046f8bc08bc9e4670471d1f02003c
:1000c000f8b5c046f8bc08bc9e467047f51e020055
:020000040000fa
:0800d000900601000100000090
:020000040000fa
:1000d800083b00201c000000000000008c380020b5
:1000e8000400000000000000243a00200400000082
:1000f80000000000c83c00200400000001000000cf
:1001080077e200007c37002070000000000000004b
:10011800cc3c00200400000000000000773b0020d9
:100128000100000000000000243b00201c0000002b
:1001380000000000233a0020010000000000000039
:10014800000000202800000000000000f83b00200c
:100158001400000000000000d03c00200400000053
:1001680000000000d43c0020040000000000000053
:10017800d83c00200400000000000000063b0020de
:100188000200000000000000913b00200100000078
:1001980000000000ad3b002001000000000000004e
:1001a800953c00200100000000000000dc3c00201d
:1001b800040000000100000016000000e03c0020e0
:1001c8000400000000000000d43d002002000000f0
:1001d8000100000000080000d63d002001000000da
:1001e80000000000d73d00200100000000000000d2
:1001f800983c00200800000000000000e43c0020bb
:100208000400000000000000e83c0020040000009a
:1002180000000000ec3c002004000000000000008a
:10022800f03c00200400000000000000f43c002026
:100238000400000000000000f83c0020040000005a
:1002480000000000fc3c002004000000000000004a
:10025800d83d00200100000001000000ff00000060
:10026800003d00200400000000000000043d0020c4
:100278000400000000000000d93d0020010000003b
:100288000100000004000000da3d00200100000029
:1002980000000000083d00200400000000000000ed
:1002a8008a3c002002000000000000000c3d0020f5
:1002b8000400000000000000db3d002001000000f9
:1002c80000000000dc3d00200100000000000000ec
:1002d80028000020bc00000000000000e4300020de
:1002e8000001000000000000203c00201000000079
:1002f80000000000d82d0020a00100000000000030
:100308005039002030000000010000000003000008
:100318006c000000a0860100000000000000000042
:1003280000000000000000000000000000000000c5
:10033800dc050000140000000c3c0020503c0020ac
:100348000c0000000100000000000000b03b00208d
:1003580000000000b03b0020180000000100000071
:100368003b6502003f6502001d0402002d020200e9
:100378007d460200436502000c3c0020140000008a
:10038800010000000534020051390200f546020060
:10039800855e0200c1620100103d002004000000db
:1003a80000000000e400002034000000000000000d
:1003b800143d002004000000010000002b2f3d40e8
:1003c800283a00202000000000000000483a0020e1
:1003d8002000000000000000683a00202000000013
:1003e80000000000ac330020c00000000000000046
:1003f800803900202c00000000000000dd3d0020b6
:100408000100000000000000ac3900202c000000b2
:1004180000000000fc340020800000000000000004
:10042800b814002000040000000000004c38002030
:100438004000000000000000a03c00200800000070
:1004480000000000a83c0020080000000000000098
:10045800183d002004000000000000007c3500204a
:100468008000000000000000b03c002008000000f0
:1004780000000000de3d0020010000000000000038
:10048800b818002000040000000000001c3d0020f7
:1004980004000000000000005c3c00200c0000008c
:1004a80000000000e4320020c80000000000000046
:1004b800df3d00200100000000000000e03d0020ba
:1004c8000100000000000000b83c00200800000007
:1004d80000000000203d0020040000000000000093
:1004e80018010020010000000000000090380020e2
:1004f8004000000000000000b82400202003000095
:1005080000000000923b00200200000001000000f3
:1005180001000000243d002004000000000000004d
:10052800d839002028000000000000006c340020aa
:100538009000000000000000283d0020040000009a
:10054800000000001c010020140000000000000052
:10055800300100204200000000000000403b002065
:100568001c00000000000000b81c0020000400006f
:10057800000000002c3d00200400000000000000e6
:10058800e13d00200100000001000000ff00000024
:10059800e23d00200100000000000000e33d0020d3
:1005a8000100000000000000e43d00200100000000
:1005b80000000000e53d00200100000000000000f0
:1005c800e63d00200100000000000000e73d00209b
:1005d8000100000000000000303d00200400000081
:1005e80000000000343d002004000000000000006e
:1005f800383d00200400000000000000e83d002015
:1006080001000000000000003c3d00200400000044
:1006180000000000e93d002001000000000000008b
:10062800ea3d00200100000000000000eb3d002032
:100638000100000000000000003a00202300000034
:1006480000000000403d0020040000000000000001
:10065800443d00200400000000000000e83a0020ab
:100668001e000000000000005c3b00201b00000092
:1006780000000000ec3d0020010000000000000028
:10068800483d00200400000001000000ffffffffbc
:100698004c3d00200400000001000000ffffffffa8
:1006a800503d00200400000001000000ffffffff94
:1006b800543d00200400000001000000ffffffff80
:1006c800583d00200400000001000000ffffffff6c
:1006d800740100200400000000000000ed3d00202f
:1006e80001000000000000005c3d00200400000044
:1006f80000000000ee3d00200100000000000000a6
:10070800603d00200400000000000000d0380020f8
:100718004000000000000000ae3b00200200000086
:1007280000000000c83b0020180000000100000085
:1007380009ae0100e163020035360100e99d0100c0
:10074800ada401000000000078010020180000009e
:1007580000000000963c002002000000000000009d
:10076800683c00200c00000001000000306e65317c
:100778003233343536373800643d00200400000039
:1007880001000000ffffffff683d0020040000009b
:1007980001000000ffffffffe03b00201800000001
:1007a800010000002d58020051500200c51501003b
:1007b800f5db01006d1a0100000000009001002027
:1007c800b4050000000000006c3d0020040000009b
:1007d800010000005c65020044070020a001000041
:1007e80000000000703d0020040000000000000030
:1007f800ef3d00200100000000000000f03d002057
:100808000100000000000000743d0020040000000a
:1008180000000000f13d0020010000000000000081
:10082800f23d00200100000000000000783d00209b
:100838000400000001000000ffffffff7c3d0020d6
:100848000400000001000000fffffffff33d00204f
:10085800010000000100000001000000803d0020b0
:100868000400000001000000ffffffffe408002073
:100878002402000000000000f43d002001000000f8
:1008880000000000f53d002001000000000000000d
:10089800f63d00200100000000000000f73d0020a8
:1008a8000100000000000000843d0020040000005a
:1008b80000000000f83d00200100000000000000da
:1008c800883d00200400000001000000ffffffff3a
:1008d8008c3c00200900000001000000536174688e
:1008e80076696b61000000008c3d00200400000068
:1008f80001000000ffffffff903d00200400000002
:1009080001000000ffffffffb820002000040000e6
:1009180000000000f93d0020010000000000000078
:10092800fa3d00200100000000000000fb3d00200f
:100938000100000000000000e43100200001000078
:1009480000000000fc3d0020010000000000000045
:10095800943d00200400000000000000983d0020a5
:100968000400000000000000783b0020190000008f
:100978000100000042414141414144443144424167
:1009880041414444314400000000000000000000e0
:10099800303c00201000000001000000302e302ef6
:1009a800302e300000000000000000009c3d0020b8
:1009b80004000000010000000a000000080b0020ed
:1009c8002200000000000000fc350020800000002c
:1009d80000000000d82700200002000000000000ee
:1009e800d829002000020000000000007c3600200a
:1009f8008000000000000000381000208004000083
:100a080000000000fc36002080000000000000000c
:100a1800403c00201000000000000000a03d002025
:100a280004000000000000002c0b0020050100005d
:100a380000000000fd3d0020010000000000000053
:100a4800fe3d00200100000000000000ff3d0020e6
:100a58000100000000000000d82b00200002000068
:100a680000000000a43d0020040000000000000079
:100a7800943b00201900000001000000736e303024
:100a8800303030303030303030303030303030305e
:100a98000000000000000000340c002000040000ea
:100aa80000000000a83d0020040000000000000035
:100ab800ac3d00200400000000000000883a00203f
:100ac8002000000000000000a83a002020000000dc
:100ad80000000000c83a00202000000000000000cc
:100ae800b03d00200400000001000000ec370020a9
:100af800ec3700206000000001000000000000004a
:100b0800a83a0020c83a0020883a002000000000d7
:100b180000000000000000000000000000000000cd
:100b280000000000000000000000000000000000bd
:100b380000000000000000000000000000000000ad
:100b4800000000000000000000000000000000009d
:100b5800000000000000000000000000b43d00207c
:100b68000400000000000000b83d00200400000060
:100b780000000000743c00200b0000000000000092
:100b88007f3c00200b00000000000000bc3d00205e
:100b98000400000000000000c03d00200400000028
:100ba80000000000c43d0020040000000000000018
:100bb800c03c002008000000010000006c65020035
:100bc8006c650200103900204000000001000000a0
:100bd80001000000000000004a00000000000000c2
:100be80000000000000000000000000000000000fd
:100bf800000000004a0000000000000000000000a3
:100c080000000000000000000000000000000000dc
:100c1800782f00206c010000010000004300000054
:100c280000000000000000000000000000000000bc
:100c38000000000000000000000000004300000069
:100c4800000000000000000000000000000000009c
:100c58000000000000000000000000004300000049
:100c6800000000000000000000000000000000007c
:100c78000000000000000000000000004300000029
:100c8800000000000000000000000000000000005c
:100c98000000000000000000000000004300000009
:100ca800000000000000000000000000000000003c
:100cb80000000000000000000000000043000000e9
:100cc800000000000000000000000000000000001c
:100cd80000000000000000000000000043000000c9
:100ce80000000000000000000000000000000000fc
:100cf800000000000000000000000000055902008c
:100d0800154d020000000000e8690100ed610200d5
:100d1800ec610200ec610200ec610200ec6102008f
:100d2800ec610200ec610200ec610200ec6102007f
:100d3800ec610200ffffffffffffffffffffffff68
:100d4800ffff000001004153434949000000000033
:100d5800000000000000000000000000000000008b
:100d68000000000000004153434949000000000012
:100d7800000000000000000000000000000000006b
:100d880000000000000000003410002004000000f3
:100d980000000000c83d0020040000000000000022
:100da800cc3d00200400000001000000c83d0020e8
:100db800d03d0020040000000000000000000000fa
:100dc8000000000022222222222222222222222283
:020000040000fa
:100dd800f0b516001f00446a9db00390259d069645
:100de8000797002c08d1102024f05eff039b446075
:100df800586284600460c460039b5b6a19680029b8
:100e08000bd05a68012393404a608b60039822f004
:100e18009cfe0022039b5b6a1a60002f1cda0123e8
:100e28002b607b005b080793079dba4b2a00189339
:100e38001a409a421cd1b84b249a28031360069b87
:100e4800000b1843b54b01d100f081fd269a002a0a
:100e580005d10933059308e000232b60e4e71a0065
:100e6800093205920c33269a136005981db0f0bd1f
:100e7800069b079c10931194109811990022002347
:100e88001df098fc041e0ed00123249a1360a34b76
:100e98001a000d320592269a002ae6d01a002699e1
:100ea8000e320a60e1e71aab01931bab009303987b
:100eb800109a119b1af062fb6e000490760d00d117
:100ec8007ee010981199119b954a1b031b0b1a433e
:100ed8001100944b1694f6180022934b01f020ff52
:100ee800924a934b05f0e2f8924a934b03f0d4f9f7
:100ef800040030000d001df02bff904a904b05f0c8
:100f0800d5f802000b002000290003f0c5f9040001
:100f18000d001ef025fe002202900023200029006b
:100f28001df04efc00280bd002981df011ff2b007d
:100f380022001df03ffc43425841029b1b1a0293ba
:100f480001231393029b162b0fd810981199da00de
:100f58007c4b9b181a685b681df032fc00284bd04c
:100f6800029b013b0293002313931a9b9e1b0023b1
:100f780008933300013b0b9304d501239b1b089373
:100f880000230b93029b002b38db029a0b9b9446a1
:100f980063440b93002312920d93229b0124092b87
:100fa80000d985e0052b02dd0024043b2293229b17
:100fb800981e032800d985e024f09efe296b6978e5
:100fc8001a9b1b9a9e18604bf218202a0fdd4023ab
:100fd8009b1a9d405d4b0698f318d84028431ff094
:100fe8002bfc01235a4c013e0919169374e7202360
:100ff80006989b1a9840f2e71390b6e7089b029a66
:101008009b1a089353420d9300231293c5e70023bc
:101018000f93239b002b59dc01230c930a932393f2
:10102800039a556a00226a60043210001430696815
:1010380098424fd903981ef007fb039b28605b6a10
:101048001b6805930a9b0e2b00d9f7e0002c00d1f2
:10105800f4e0029b002b00dc7ee01a000f21394be4
:101068000a40d2009b181e685f68029b02241d116b
:10107800eb060ad5374b0d401a6a5b6a109811992e
:1010880003f0b2ff069007910134324b36e001239a
:10109800bee70023239a0f939446029b63440c9364
:1010a80001330a93002bbbdc0123b9e70123f1e7e5
:1010b80000230f942293013b00220c930a9323925e
:1010c8001333ade701230f93023bf5e7239b0c9302
:1010d8000a93a5e7013169605200a6e701231d4282
:1010e80009d0e4180e9b30001a685b68390004f0d8
:1010f800ddff06000f000e9b6d1008330e93002dc8
:10110800ecd10698079932003b0003f06dff06907a
:1011180007913ce00000f07f0f270000745f020099
:101128000000f03f01fcffff0000f83f61436f63e0
:10113800a787d23fb3c8608b288ac63ffb799f50e8
:101148001344d33fb09e0100320400001204000093
:10115800000010fe50490200029b0224002b16d00a
:10116800109811995d420f23d54a2b40db00d31804
:101178001a685b6804f09aff01270023069007911c
:10118800d04e2d11002d00d089e0002bbfd1139b2c
:10119800002b00d18ee0069e079f0022ca4b30002c
:1011a80039001df00dfb002800d183e00a9b002bbd
:1011b80000d17fe00c9b002b3cdd029b3900013bfa
:1011c8000e930022c14b300004f070ff0690079187
:1011d8000c9f013420001df0bbfd069a079b04f00c
:1011e80065ff0022ba4b03f057f814901591149c30
:1011f800159d159bb74a9e18002f5fd10698079931
:101208000022b54b01f08cfd2200330006900791b7
:101218001df0eafa002800d0a0e2b04815998446eb
:1012280061440b000698079922001df0c9fa0028ae
:1012380000d08de2109b119c069307941b9b002bfa
:1012480000da5fe1029a0e2a00dd5be19c4bd200d6
:101258009b185c681b6808930994239b002b00db90
:10126800cfe00a9b002b00ddcbe000d073e20898aa
:1012780009990022984b04f019ff069a079b1df064
:10128800bdfa0a9d2e00002800d046e2059b059a6b
:101298005f1c31231370029b0133029341e23d42ec
:1012a80005d03268736804f001ff3b0001346d100b
:1012b800083667e7029b0a9f0e938be77a1e804bde
:1012c800d2009b18186859680f9b002b4bd002005e
:1012d8000b000020824903f087fe3300220001f052
:1012e8001ffd05000e00059b1493fb181793069825
:1012f80007991ef035fc04001df02afd02000b00c2
:101308000698079901f00cfd149b30345f1c1c7083
:101318002a003300069007911df052fa002864d184
:10132800069a079b0020684901f0fafc2a0033005e
:101338001df046fa002800d0b0e0179bbb4200d150
:1013480078e70022614b2800310004f0affe00224c
:1013580005000e00069807995c4b04f0a7fe149749
:1013680006900791c3e72200330004f09ffe059c16
:1013780014901591e3191993069807991ef0f0fb3c
:1013880017901df0e5fc0b0002000698079901f084
:10139800c7fc179b050030332370199b01340e00de
:1013a8009c4227d114981599059b0022df194c4bb4
:1013b80002f072ff02000b00280031001df014fa41
:1013c80000286bd1149a159b0020454901f0a8fc10
:1013d80002000b00280031001df0f2f9002800d1ae
:1013e80028e77b1e1a78302a02d00e9b029343e02e
:1013f8001f00f6e70022354b04f058fe06900791cf
:10140800bae7059c0a9a2300069d079e013b9b1894
:101418000693089a099b2800310003f0e5fd1ef0a9
:101428009ffb0a901df094fc089a099b04f03efe6d
:101438000b0002003100280001f072fc0a9b671cb7
:1014480030332370069ba3424ed102000b0002f0fa
:1014580023ff089a099b04000d001df0c5f9002818
:101468001ad1089a099b200029001df0a3f9002829
:1014780002d00a9bdb070fd40499039822f065fb7e
:1014880000233b70029b249a01331360269b002b98
:1014980000d1eae41f60e8e4029b0e937b1e1a78f1
:1014a800392a08d1059a9a421cd10e9a0599013217
:1014b8000e9230220a701a7801321a7095e7c046e7
:1014c800b09e0100504902000000f03f0000244097
:1014d80000001c400000c0fc000014400000c07c5c
:1014e8000000e03f1f00d9e700229f4b04f0defd1b
:1014f8000022002305000e003c001df05bf90028c7
:1015080087d0b9e70f9a002a00d189e0229a012ae8
:101518006ddc169a002a66d0944a9b180d9d089c8b
:10152800089a0121d21808920b9a0398d3180b93a2
:1015380024f022fc0600002c0edd0b9b002b0bdd9b
:101548000b9a2300944200dd1300089ae41ad21a79
:1015580008920b9ad31a0b930d9b002b1dd00f9b4f
:10156800002b61d0002d10dd31002a0003981af0fd
:10157800f1fb049a01000600039812f017ff070018
:101588000499039822f0e1fa04970d9b5a1b04d0a2
:10159800049903981af0defb04900121039824f0c3
:1015a800ebfb129b0500002b40dd1a00010003989d
:1015b8001af0d0fb229b05000027012b3edc0027f8
:1015c800069bbb4236d1079b1b03bb4232d1189bfb
:1015d800079a13422ed0089b0137013308930b9bbf
:1015e80001330b9326e036231a9a9b1a96e70a9b37
:1015f8005d1e0d9bab4208db5d1b0a9b002b0cdac2
:10160800089b0a9a9c1a00238ae70d9b0d95ea1af3
:10161800129b00259b181293efe7089c0a9b7fe713
:101628000d9d089c0f9e86e70d9ab1e7229b002727
:10163800012bc4dd129b0120002b08d02b6903333a
:101648009b00eb18586822f001fa2023181a0b9b0c
:10165800c0181f23184046d001331b1a042b3fdd46
:101668001c23181a089b24181b1808930b9b1b187b
:101678000b93089b002b05dd1a00049903981af0b8
:1016880020fa04900b9b002b05dd29001a00039813
:101698001af017fa0500139b002b26d0290004988e
:1016a80022f0eef9002820da029b0a22013b02937d
:1016b8000499002303981df065f90f9b0490002bf3
:1016c80000d14de1002331000a2203981df05af998
:1016d8000c9b0600002b51dc229b022b4edd0ce0fc
:1016e800042bc6d018001c30bce70a9b002b3fdc3b
:1016f800229b022b3cdd0a9b0c930c9b002b0cd1ec
:101708002900052203981df03df905000100049801
:1017180022f0b6f9002800ddb8e5239b059fdb43de
:10172800029300230a932900039822f00efa002e50
:1017380000d1a1e60a9b002b05d0b34203d01900c3
:10174800039822f002fa3100039822f0fef993e69a
:101758003d003e00e1e700252e00dee70e9b3d0040
:1017680002933e0092e5c046000024403304000086
:101778000f9b002b00d1ade00a9b0c93002c05dddc
:101788003100220003981af09cf906003000002f5f
:1017980011d0716803981df057ff310004003369b8
:1017a8000c319a1c92000c3024f0d4fa012221004a
:1017b80003981af086f90a960600059b08932900f3
:1017c800049813f0a1ff0a990d900400049822f0e0
:1017d80057f932000e902900039818f01fff0123d3
:1017e8000b93c36830340700002b04d10100049820
:1017f80022f046f90b903900039822f0a6f901234c
:10180800069a0b991a40089b5f1c229b0b431343b3
:1018180009d1392c21d00e9b002b01dd0d9c3134d0
:10182800089b1c707fe70e9b002b03db22990b4360
:1018380013431cd10b9b002bf2dd04990122039862
:101848001af03ff92900049022f01af9002802dc66
:10185800e6d1e307e4d5392ce0d13923089a13708f
:101868007b1e1a78392a67d001321a705be70b9b06
:10187800002b03dd392cf0d00134d1e7089b059a01
:101888001c7001239b1a089a9b180c9a9a423ed006
:1018980000230a22049903981df074f80a9b049007
:1018a800b34209d100230a220a9903981df06af865
:1018b8000a900600089782e70a9900230a220398eb
:1018c8001df060f800230a900a22310003981df0e9
:1018d80059f8eee70a9b0c93059b0a932900049894
:1018e80013f012ff0a9b30305f1c18700c9a059b8e
:1018f8000400fb1a9a4208dd00230a22049903987f
:101908001df040f80a970490e8e700230a93049929
:10191800012203981af0d5f82900049022f0b0f8b3
:1019280000289ddc01d1e3079ad47b1e1a78302a5f
:1019380000d0f8e61f00f8e7059a9a4205d1029b05
:101948000133029331231370ede61f0088e7269ace
:1019580005930833002a01d0fff785fafff785fac7
:101968000c9b002bb8dc229b022b00ddc5e6b3e7fd
:020000040000fa
:10197800415a5552453a205265626f6f74696e67d5
:101988002e2e2e1b5b306d00415a5552453a2025ac
:10199800732829203a205061796c6f61642025737f
:1019a8001b5b306d00000000415a5552453a2045f6
:1019b80072726f722067657474696e67206e6578dd
:1019c8007420746f6b656e1b5b306d00415a555205
:1019d800453a2025732829203a205061796c6f6197
:1019e8006420456d7074791b5b306d00415a555207
:1019f800453a204d65737361676520737472696e2b
:101a080067206e6f7420666f756e641b5b306d00a7
:101a1800415a5552453a204d657373616765207484
:101a28006f6f2062696720666f7220545820427574
:101a38006666657220256c751b5b306d00000000c2
:101a4800040000004661696c656420746f2062754b
:101a5800696c642073656e736f722074656c656d54
:101a680065747279204a534f4e207061796c6f61aa
:101a7800641b5b306d000000415a5552453a2025e1
:101a8800731b5b306d000000415a5552453a205097
:101a9800726f63657373696e6720436f6d6d616ef6
:101aa8006420272573271b5b306d00007265626f09
:101ab8006f740000415a5552453a20257328292051
:101ac8003a205061796c6f61642025732025641b6e
:101ad8005b306d00415a5552453a205265626f6f2e
:101ae800742044656c6179206e6f7420666f756e22
:101af800641b5b306d000000415a5552453a205234
:101b080065626f6f742044656c61792077726f6ebf
:101b18006720666f726d61742025732025641b5bd6
:101b2800306d0000415a5552453a20536368656448
:101b3800756c696e67207265626f6f7420696e20bc
:101b48002564207365631b5b306d0000415a555254
:101b5800453a204661696c656420746f2073636838
:101b68006564756c65207265626f6f742074696d49
:101b780065721b5b306d0000415a5552453a20464c
:101b880061696c65642070726f636573735f7265f9
:101b9800626f6f745f636f6d6d616e642c20737418
:101ba80061747573203078253038781b5b306d0090
:101bb800415a5552453a204661696c656420746ff4
:101bc800206275696c64206572726f722072657329
:101bd800706f6e73652e2028307825303878291b71
:101be8005b306d006563686f4d736700415a5552ed
:101bf800453a204661696c65642070726f6365734d
:101c0800735f6563686f4d73675f636f6d6d616e5a
:101c1800642c20737461747573203078253038789b
:101c28001b5b306d00000000415a5552453a205563
:101c38006e737570706f7274656420636f6d6d611b
:101c48006e642072656365697665643a2025732e33
:101c58001b5b306d00000000415a5552453a205533
:101c68006e61626c6520746f2067657420636f6da8
:101c78006d616e6420726573706f6e736520707528
:101c8800626c69736820746f7069631b5b306d00e8
:101c9800415a5552453a20556e61626c6520746f01
:101ca8002073656e6420256420726573706f6e738f
:101cb800652c207374617475732025641b5b306d0b
:101cc80000000000415a5552453a2050726f706525
:101cd80072747920546f7069632020203a2025732c
:101ce8001b5b306d00000000415a5552453a2050a8
:101cf800726f706572747920547970652020202085
:101d08003a2025641b5b306d00000000415a555293
:101d1800453a2050726f7065727479205061796c01
:101d28006f6164203a2025731b5b306d0000000052
:101d3800415a5552453a204661696c656420746f72
:101d48002070617273652070726f7065727479208b
:101d5800746f706963203078253038782e1b5b30bb
:101d68006d000000415a5552453a20546f7069631e
:101d78003a2027257327205061796c6f61643a20d7
:101d8800272573271b5b306d00000000415a555210
:101d9800453a20494e495449414c20474554205220
:101da800656365697665641b5b306d00415a555201
:101db800453a2050726f70657274792047455420f7
:101dc80052656365697665641b5b306d00000000d1
:101dd800415a5552453a2050726f70657274792095
:101de8004445534952454420537461747573202502
:101df800642056657273696f6e2025731b5b306da6
:101e080000000000415a5552453a2050726f7065e3
:101e1800727479205245504f52544544205374618e
:101e28007475732025642056657273696f6e20255a
:101e3800731b5b306d000000415a5552453a2054df
:101e48007970652025642053746174757320256446
:101e58002049442025732056657273696f6e2025ca
:101e6800731b5b306d000000617a5f6a736f6e5f91
:101e78007265616465725f696e6974282920666f8e
:101e880072206765742076657273696f6e2066616b
:101e9800696c65641b5b306d00000000617a5f69e6
:101ea8006f745f706e705f636c69656e745f70727b
:101eb8006f70657274795f6765745f70726f706553
:101ec8007274795f76657273696f6e28292066610e
:101ed800696c65641b5b306d00000000617a5f6aa5
:101ee800736f6e5f7265616465725f696e6974288d
:101ef80029206661696c65641b5b306d0000000019
:101f080025730000415a5552453a20526563656968
:101f1800766564204c45441b5b306d00415a555230
:101f2800453a20526563656976656420756e6b6e07
:101f38006f776e2070726f706572747920272573c1
:101f4800271b5b306d000000415a5552453a204e20
:101f58006f2070726f706572747920757064617427
:101f6800651b5b306d000000415a5552453a2053bd
:101f7800656e64696e672050726f7065727479203f
:101f8800666c616720307825781b5b306d00000037
:101f9800415a5552453a556e61626c6520746f20fe
:101fa800696e697469616c697a65206a736f6e20fd
:101fb80077726974657220666f722070726f7065cf
:101fc8007274792050415443481b5b306d00000007
:101fd800415a5552453a20556e61626c6520746fbe
:101fe800206164642070726f706572747920666f06
:101ff800722074656c656d6574727920696e74659c
:102008007276616c2c2072657475726e20636f64d1
:1020180065203078253038781b5b306d0000000073
:10202800415a5552453a20556e61626c6520746f6d
:10203800206164642070726f706572747920666fb5
:1020480072204465627567204c6576656c2c207239
:10205800657475726e20636f64652030782530383a
:10206800781b5b306d000000415a5552453a2055a7
:102078006e61626c6520746f206164642070726f99
:10208800706572747920666f7220495020416464cb
:10209800726573732c2072657475726e20636f6439
:1020a8006520203078253038781b5b306d000000c3
:1020b800415a5552453a20556e61626c6520746fdd
:1020c80020617070656e6420656e64206f626a6559
:1020d80063742c2072657475726e20636f6465205a
:1020e800203078253038781b5b306d00415a5552c6
:1020f800453a205061796c6f616420746f6f206c71
:102108006f6e67203a2025641b5b306d000000006d
:102118004661696c656420746f2067657420726518
:1021280071756573742069641b5b306d0000000075
:10213800415a5552453a4661696c656420746f206e
:102148006765742070726f7065727479205041549d
:10215800434820746f7069631b5b306d000000009a
:1021680074656c656d657472795f496e745f25641a
:102178000000000074656c656d657472795f446277
:102188006c5f25640000000074656c656d65747291
:10219800795f466c745f2564000000007472756591
:1021a8000000000066616c7365000000415a5552da
:1021b800453a20436173652073656e736974697667
:1021c8006520626f6f6c65616e2076616c75652045
:1021d8006e6f7420277472756527206f72202766ca
:1021e800616c736527203a2025731b5b306d0000f6
:1021f800415a5552453a20556e6b6e6f776e207076
:10220800726f706572747920636f6d6d616e641b97
:102218005b306d004661696c656420746f20616c89
:102228006c6f63617465206d656d6f727920666f80
:102238007220746865206d6573736167652e000090
:102248004d65737361676520737472696e67206981
:102258007320656d7074792e205370656369667993
:1022680020737472696e672e000000006563686fe2
:102278004d7367537472696e670000007b22537454
:1022880061747573223a22556e737570706f72742b
:10229800656420436f6d6d616e64227d00000000ef
:1022a8004572726f722070726f63657373696e67bf
:1022b80020636f6d6d616e640000000044656c61a1
:1022c800792074696d6520696e2077726f6e67205a
:1022d800666f726d61742e2053706563696679202c
:1022e8002764656c61792720696e20706572696f53
:1022f8006420666f726d61742028505435532066cf
:102308006f722035207365632900000044656c6195
:10231800792074696d6520697320656d7074792ef4
:102328002053706563696679202764656c61792735
:1023380020696e20706572696f6420666f726d61c6
:102348007420285054355320666f722035207365e9
:1023580063290000737461747573000064656c61af
:102368007900000053756363657373006970416495
:10237800647265737300000064656275674c657606
:10238800656c000070617469656e744e616d6500fe
:102398006c656453746174757300000074656c65d2
:1023a8006d65747279496e74657276616c000000af
:1023b80074656c656d657472795f5374725f34000f
:1023c80074656c656d657472795f5374725f330000
:1023d80074656c656d657472795f5374725f3200f1
:1023e80074656c656d657472795f5374725f3100e2
:1023f80074656c656d657472795f426f6f6c00000f
:1024080074656c656d657472795f4c6e6700000069
:10241800686561727452617465000000696e697460
:1024280069616c5f676574000d0a44657669636568
:102438002049440d0a0000000d0a4f4b0d0a040004
:102448000d0a556e6b6e6f776e2e0d0a0000000038
:102458000d0a434c492056657273696f6e0d0a0068
:10246800322e30000d0a4669726d7761726520560a
:10247800657273696f6e0d0a00000000322e302eef
:102488003000000025730d0a000000000d0a57698e
:10249800466920636f6d6d616e640d0a2020536577
:1024a8007420576946692070616972696e672020d7
:1024b800203a202d736574203c737369643e5b2c4d
:1024c8003c706173733e2c5b6175746854797065f8
:1024d8005d5d0d0a202047657420576946692053c1
:1024e8007461747573202020203a202d73746174f0
:1024f80075730d0a20205363616e20416363657311
:102508007320506f696e7473203a202d7363616e67
:102518000d0a04000d0a53656e642054656c656de0
:1025280065747279203c496e6465783e2c3c446140
:1025380074613e000d0a20496e6465783a20416353
:1025480074696f6e205b4578616d706c655d000025
:102558000d0a205b5348414e5d206e6f74207375e1
:1025680070706f7274656420303a205265736574b8
:10257800204465646963617465642054656c656da5
:102588006574727920496e74657266616365202886
:1025980044544929205b652e672e2074656c656d4f
:1025a8006574727920302c305d0000000d0a2031ee
:1025b8007e343a20557064617465205369676e658e
:1025c8006420496e746567657220696e2068657855
:1025d800202834206279746573206d617829205b26
:1025e800652e672e2074656c656d6574727920326e
:1025f8002c43414645424545465d00000d0a2035bd
:102608007e363a2055706461746520446f75626c3b
:102618006520696e2068657820283820627974659d
:102628007329205b652e672e2074656c656d657453
:10263800727920352c4635333741303231434630b4
:1026480031354234345d00000d0a20377e383a2097
:1026580055706461746520466c6f617420696e20e2
:1026680068657820283420627974657329205b6551
:102678002e672e2074656c656d6574727920382c10
:1026880034313833343545315d0000000d0a2039c6
:102698003a20557064617465204c6f6e6720696ece
:1026a80020686578202838206279746573206d6108
:1026b8007829205b652e672e2074656c656d6574be
:1026c800727920392c4341464531323334424545ed
:1026d80046353637385d00000d0a2031303a20552e
:1026e800706461746520426f6f6c65616e20287438
:1026f8007275652f66616c736529205b652e672e80
:102708002074656c656d657472792031302c747233
:1027180075655d000d0a2031317e31343a205570df
:102728006461746520537472696e6720286e6f2027
:102738007370616365732c20363720636861727328
:10274800206d617829205b652e672e2074656c6585
:102758006d657472792031332c48656c6c6f5f57e6
:102768006f726c642121215d000000000d0a557014
:10277800646174652052656164204f6e6c792050e5
:10278800726f7065727479203c496e6465783e2c6e
:102798003c446174613e00000d0a2020496e646566
:1027a80078207c20446174612028696e204865780f
:1027b80029207c205772697461626c6520286279cf
:1027c80020436c6f756429000d0a202031207e207b
:1027d80032207c20696e7465676572202020202075
:1027e80020207c2066616c73650000000d0a2020a3
:1027f80033207e2034207c20696e746567657220e2
:102808002020202020207c207472756500000000a4
:102818000d0a536574204465627567204c657665ba
:102828006c0d0a000d0a43757272656e742064653a
:10283800627567206c6576656c2025730d0a040047
:102848000d0a4465627567206c6576656c206d7548
:102858007374206265206265747765656e20302028
:10286800284c656173742920616e64203520284dd9
:102878006f737429200d0a000d0a4572726f722059
:1028880067657474696e67206b65792e0d0a0000a0
:10289800747275650d0a040066616c73650d0a042f
:1028a800000000002d7363616e0000002d737461d9
:1028b800747573002d7365740000000025730000a3
:1028c8002c00000031000000256400000d0a45724c
:1028d800726f722e2057692d466920636f6d6d6186
:1028e8006e6420666f726d61742069732077696603
:1028f80069203c737369643e5b2c3c706173733e62
:102908002c5b61757468547970655d5d0d0a04000f
:102918000d0a4f4b0d0a00000d0a4765742f5365c9
:1029280074204450532049442053636f70650d0a46
:102938000000000043757272656e7420494420538c
:10294800636f7065203a202573200d0a000000008f
:102958004e65772049442053636f706520257320a6
:102968000d0a0000496e76616c6964204944205361
:10297800636f7065203a202573200d0a000000005f
:1029880049442053636f706520656e746572656491
:10299800203a2025732e204e6f6e2d616c70686171
:1029a800206e756d6265726963206c6574746572fa
:1029b8002064657465637465642e202053686f75a0
:1029c8006c6420626520306e6558585858585858bd
:1029d8005820666f726d61740d0a00005772697431
:1029e800696e672049442053636f70652025732002
:1029f800746f20415443410d0a0000004e65772052
:102a080049442053636f7065203a2025730d0a00ee
:102a18000d0a496e76616c696420636f6d6d616e35
:102a28006420706172616d657465720d0a0400003e
:102a38000d0a496e76616c696420636f6d6d616e15
:102a48006420696e64657820706172616d65746573
:102a5800720d0a04000000000d0a496e76616c6967
:102a68006420636f6d6d616e6420696e64657820a3
:102a7800706172616d657465722e0d0a0400000044
:102a880070726f7065727479000000003a205365a7
:102a98006e6420616e642072656365697665206482
:102aa80065766963652070726f70657274792066e7
:102ab800726f6d20636c6f7564202f2f557361677b
:102ac800653a2070726f7065727479203c696e6423
:102ad80065783e2c203c6461746128686578293edd
:102ae8000000000074656c656d6574727900000003
:102af8003a2053656e64206461746120746f2063aa
:102b08006c6f75642061732074656c656d65747293
:102b180079202f2f55736167653a2074656c656d50
:102b280065747279203c696e6465783e2c203c643b
:102b380061746128686578293e00000069647363e0
:102b48006f7065003a2047657420616e6420536594
:102b58007420417a757265204450532049442053ab
:102b6800636f7065202f2f55736167653a2069641c
:102b780073636f7065205b49442053636f70655db4
:102b8800000000007265636f6e6e6563740000007c
:102b98003a204d515454205265636f6e6e656374cc
:102ba8002000000077696669000000003a2053653c
:102bb8007420576966692063726564656e7469611b
:102bc8006c73202f2f55736167653a2077696669a2
:102bd800203c737369643e5b2c3c706173733e2cbc
:102be8005b61757468547970655d5d200000000054
:102bf800636c6f75640000003a20476574204d517e
:102c0800545420436f6e6e656374696f6e205374fd
:102c180061747573000000006b6579003a204765a0
:102c28007420454343205075626c6963204b657975
:102c38002000000064657669636500003a204765f6
:102c480074204543432053657269616c204e6f2e92
:102c580020000000636c695f76657273696f6e00af
:102c68003a2047657420434c492076657273696f32
:102c78006e20000076657273696f6e003a204765b2
:102c880074204669726d7761726520766572736922
:102c98006f6e200064656275670000003a20476522
:102ca8007420616e642053657420446562756720e2
:102cb8004c6576656c2000001b5b33376d20204e19
:102cc8004f4e451b5b33376d000000001b5b3331f3
:102cd8006d204552524f521b5b33376d0000000088
:102ce8001b5b33336d20205741524e1b5b33376dce
:102cf800000000001b5b33366d2044454255471bde
:102d08005b33376d000000001b5b33376d202049b3
:102d18004e464f1b5b32376d1b5b33376d00c04629
:020000040000fa
:102d2800f0b5574645464e46de46e0b50f037f0ae6
:102d3800450f3d43ac465d004e00cc0f690d8a46f9
:102d48001f03ca49550f83b0c0007f0ad200760d11
:102d58008046db0f2f4301928a4500d1c0e05546db
:102d6800751ba9460125ab465d466b409b469c42b8
:102d780000d190e04d46002d00dcbbe05346002b0f
:102d880000d1d4e08e4200d19fe280231b041f4370
:102d98004b46382b00dd64e11f2b00dd16e2494667
:102da80020233d005b1a11009a409d40531e9a4112
:102db8004b46a8464d46df406346e9404546db1b87
:102dc8009c460d431543451ba8428041634641423a
:102dd800591a0b0200d41ce149024b0a9846434693
:102de800002b00d130e1404620f0e6f90300083b13
:102df800202229004746d21a9f40d1409d400f43c8
:102e08009e4200dd1ce19e1b731c1f2b00ddb2e1fe
:102e180020222800d21a390095409140d8406a1ed5
:102e2800954101430d4339000026d9406b0709d06d
:102e38000f232b40042b05d02b1dab42ad416d4217
:102e480049191d000b0200d4e6e0721c874b560599
:102e5800760d9a4200d1eee0854fed080f407807d5
:102e6800284382467a02120b00211203130b0a0d23
:102e780012051a437f4b3605134033435b00e407c2
:102e88005b0823435046190003b03cbc9046994662
:102e9800a246ab46f0bd4d46002d5bdd5346002be8
:102ea80000d19ae08e4200d109e180231b041f4320
:102eb8004b46382b00dd6ee11f2b00dca5e1390005
:102ec800203bd9404b46202b05d040234d465b1b69
:102ed8009f403a430192019d6f1ebd410d435ee143
:102ee80065493d0089461543b144002d2dd09b46c8
:102ef8009c422fd0494600294ad1604d711c294275
:102f080000d0bde03d00614615430143aa46002eae
:102f180000d0f8e1002900d1bee1002d00d0fde18c
:102f28006346c0085a0702439246d9087de03b0031
:102f3800134300d1bbe04b46013b002b00d1bbe162
:102f4800894500d1bbe0994622e701256b409b46a5
:102f58009c42cfd14946002900d0b8e0711c8a466e
:102f6800554646490d4245d161460143002e00d0e1
:102f780070e1002900d10de23b00134300d00fe2bd
:102f88006346c0085b07184363468246d9084ce08d
:102f98005146891b89465c46002e00d0c4e0634632
:102fa800034300d150e10b00013b002b00d1e8e1c5
:102fb8002e4d9946a94200d0bfe0d2087b071a439c
:102fc8009246f90853460b4300d13be28022120394
:102fd8000a431203120b254e46e73b00134300d168
:102fe8007ae14b46013b002b00d121e1894566d0af
:102ff80099465de71d4b9a4500d1dee18218824271
:1030080089415646674449427918cd075208154305
:1030180049086b0700d00be74b07ed081d43aa468c
:10302800b146c908114b9945ccd04b460a035e05f9
:10303800120b760d18e71600002300229a4613e7b4
:103048000b49f61a3940f1e6280020f0b5f80300dc
:1030580018331f2b00dccbe6083885402f000025ed
:10306800cee63a4315006a1e9541ace6ff0700001c
:10307800ffff7fffffff0f8001f8fffffe07000043
:103088006146851acb1ba8428941494288461900e6
:103098004346c91a0b0088461b0200d529e10b00dc
:1030a8002b439a4600d09ae600210024bde76346e8
:1030b800c0085b07184363468246d908b2e76346ef
:1030c800c0085b07184363468246d9087ae7534627
:1030d8009b1b9946002e00d189e0d84b9a4500d118
:1030e800e4e0802361461b0419438c464b46382b89
:1030f80000dd25e11f2b00dd6ae1494620234e460d
:103108005b1a6546010098409d40f140431e984176
:103118000d4305436046f0403f18ad18954289417c
:103128004942c91956463fe0c44b9a4500d1bde013
:10313800802361461b0419438c464b46382b00dd1f
:10314800d1e01f2b00dd01e1494620234e465b1ae2
:103158006546010098409d40f140431e98410d434b
:1031680005436046f0403f1a551baa42894149422f
:10317800791a56462de63a001f3ef2401600202bdb
:1031880003d04022d31a9f403d436b1e9d4100212e
:10319800354300263de73a4315006a1e95412d1830
:1031a80085428041414261440b0200d431e7a34b80
:1031b80001369e4200d13fe70122a14f6b083940fa
:1031c80015401d43cb071d4349082fe63900203b16
:1031d800d9404b46202b05d040234d465b1b9f40d2
:1031e8003a430192019d6f1ebd410d43ebe56346d5
:1031f800034329d04b46013b002b00d116e18f4dec
:10320800a94500d1d9e6994670e7494620233d00f3
:103218005b1a9d4011009a40a8464d46531e9a419c
:103228004b46e9404546df400d431543bc44b6e7ed
:1032380085188542894167444942791801260b025d
:1032480000d4e6e60226b7e7d2087b071a4392467f
:10325800f908e7e6002929d063463e005d07c00863
:10326800d90816432843002e00d188e080252d0375
:10327800294207d0fe082e4204d15c463100d2080c
:1032880078071043ca00410f1143c0004a07c0081d
:1032980010438246c90895e6002d00d104e7780757
:1032a800d20810438246f9085c46bee67807d20881
:1032b80010438246f90885e6851a6346a84280418c
:1032c800df1b4042391a012683e56346c0085a07c6
:1032d80002439246d90875e66346c0085a07024376
:1032e8009246d9089ee6634603431d00681e854141
:1032f8003ae7151a6346aa429241ff1a5242bb1a8c
:1033080098465c466be5002932d1002d72d07907ca
:10331800d2080a439246f9085c4653e66346851a82
:10332800d91ba8429b415b42c91a0b024ad5151a00
:103338006346aa429241ff1a5242b91a5c4675e5a1
:10334800634603431d00681e8541e6e66646203b4a
:10335800de404b46202b06d0494640235b1a614687
:103368009940084380464546691e8d413543fbe632
:103378006346c0085e07d908002d3fd13043824616
:1033880020e6151a6346aa429241ff1a5242b91a18
:1033980001261ee5d2087b071a439246f90844e63f
:1033a8008518854289416744494279180b0200d43f
:1033b8002fe6234b012619402be600235646002210
:1033c8009a4651e52b000b439a4600d16ce620e65d
:1033d8006646203bde404b46202b06d0494640231c
:1033e8005b1a61469940084380464546691e8d41ef
:1033f800354392e6802100240903e7e5064380204f
:103408000003014208d0fd08054205d1d2087f0714
:103418003a4316005c462900ca00710f1143f600b2
:103428004a07f60832439246c908cbe58518954203
:10343800924167445142791800e7c046ff070000ef
:10344800ffff7fff0023024e9a461a000ce5c04694
:04345800ff0700006a
:020000040000fa
:10345c005b62756620746f6f20736d616c6c5d00c0
:10346c0020204150503a20257328291b5b306d00d9
:10347c0020204150503a204150505f436f6e6e6592
:10348c0063744e6f7469667943622025641b5b30ec
:10349c006d0000002020576946693a204449534387
:1034ac004f4e4e45435445442e204661696c65642d
:1034bc0020746f20646574656374204150206475ba
:1034cc0072696e67207363616e2e20436865636b4f
:1034dc0020535349442026206175746854797065d3
:1034ec001b5b306d000000002020576946693a20b4
:1034fc00444953434f4e4e45435445442e20466158
:10350c00696c656420746f2061757468656e74698c
:10351c00636174652e20436865636b2070617373ff
:10352c00207068726173651b5b306d0020205769d9
:10353c0046693a20444953434f4e4e454354454403
:10354c002c204572726f7220436f64653a2025649b
:10355c002e2020436865636b2057694669204372af
:10356c006564656e7469616c731b5b306d00000083
:10357c00256c752e256c752e256c752e256c75009d
:10358c0020204150503a204448435020495020417b
:10359c006464726573732025731b5b306d000000cf
:1035ac0020204150503a205769466920436f6e6e77
:1035bc00656374696f6e205374617475732043680e
:1035cc00616e676520746f2025641b5b306d000095
:1035dc0020204150503a204661696c656420746f1c
:1035ec00207265706f72742049502041646472655a
:1035fc0073732070726f70657274791b5b306d0021
:10360c0020204150503a20557365722044617461fa
:10361c0020536c6f74202564206368616e67656449
:10362c001b5b306d0000000020204150503a204eb2
:10363c006f7420436f6e6e65637465641b5b306dd5
:10364c00000000005361746876696b610000000033
:10365c00327269342d796f77702d6965643700008b
:10366c002564000020204150503a20257328292041
:10367c00546f706963202573205061796c6f61649d
:10368c002025731b5b306d0020204150503a2043a5
:10369c006f6d6d616e6420746f70696320656d7001
:1036ac0074791b5b306d000020204150503a204350
:1036bc006f6d6d616e6420546f70696320203a20c9
:1036cc0025731b5b306d000020204150503a204385
:1036dc006f6d6d616e64204e616d652020203a2007
:1036ec0025731b5b306d000020204150503a204365
:1036fc006f6d6d616e64205061796c6f61643a20fe
:10370c0025731b5b306d000020204150503a204344
:10371c006f6d6d616e642066726f6d20756e6b6e71
:10372c006f776e20746f7069633a2027257327209a
:10373c0072657475726e20636f6465203078253005
:10374c0038782e1b5b306d0020204150503a2025dc
:10375c00732829205061796c6f61642025731b5b81
:10376c00306d000020204150503a20436f756c643e
:10377c00206e6f742070617273652064657369725a
:10378c0065642070726f70657274792c2072657428
:10379c0075726e20636f6465203078253038780a36
:1037ac001b5b306d0000000020204150503a204639
:1037bc006f756e64206c65645f73746174757320cf
:1037cc0056616c75651b5b306d000000202041500c
:1037dc00503a20466f756e642074656c656d657427
:1037ec007279496e74657276616c2076616c756560
:1037fc0020272564271b5b306d00000020204150e2
:10380c00503a20466f756e642050617469656e7411
:10381c00204e616d652076616c75652025731b5b90
:10382c00306d000020204150503a20466f756e6478
:10383c00206465627567206c6576656c2020766106
:10384c006c756520272564271b5b306d000000001c
:10385c0020204150503a2073656e645f7265706f22
:10386c00727465645f70726f706572747928292048
:10387c006661696c6564203078253038781b5b3064
:10388c006d00000020204150503a205477696e2082
:10389c00746f70696320656d7074791b5b306d009b
:1038ac0020204150503a20466f756e64206c656440
:1038bc005f7374617475732056616c756520311b70
:1038cc005b306d0020204150503a20466f756e647d
:1038dc002074656c656d65747279496e7465727669
:1038ec00616c2056616c756520272564271b5b3045
:1038fc006d00000020204150503a20466f756e64d8
:10390c00206465627567204c6576656c2056616c29
:10391c00756520272564271b5b306d0020204150e6
:10392c00503a20466f756e642050617469656e74f0
:10393c00204e616d6520466f756e642056616c7506
:10394c006520272573271b5b306d00004f4b000053
:10395c0025732c2573000000302e302e302e3000b5
:10396c005369676e65722043657274203a200d0aa4
:10397c0025730d0a1b5b306d0000000044657669f1
:10398c0063652043657274203a200d0a25730d0a75
:10399c001b5b306d00000000434552545f0000007b
:1039ac0045434453412e6c737400000065636353ac
:1039bc00656e644365727473546f57494e4328297e
:1039cc00206661696c65642077697468207265741f
:1039dc003d25640020204150503a20437279707488
:1039ec006f41757468496e6974206661696c6564b1
:1039fc001b5b306d0000000020204150503a2044e9
:103a0c00657669636549442067656e6572617469a2
:103a1c006f6e206661696c65642c20756e737065c1
:103a2c00636966696564206572726f721b5b306dc9
:103a3c000000000020204150503a20446576696314
:103a4c006549442067656e65726174696f6e2066a6
:103a5c0061696c65642c2062616420617267756dac
:103a6c00656e741b5b306d0020204150503a204431
:103a7c00657669636549442067656e657261746932
:103a8c006f6e206661696c65641b5b306d000000b5
:103a9c00736e0000706f6f6c2e6e74702e6f726789
:103aac000000000020204150503a20576946692000
:103abc004d6f64652025641b5b306d0020204150e8
:103acc00503a207472616e7366657220636f6d700c
:103adc006c657465642025641b5b306d0000000010
:103aec00676c6f62616c2e617a7572652d64657698
:103afc00696365732d70726f766973696f6e696e29
:103b0c00672e6e657400000020204150503a2072e0
:103b1c0065676973746572696e67204150505f43c5
:103b2c006c6f75645461736b63621b5b306d00006a
:103b3c002c0000000400000020204150503a20537b
:103b4c0063616e206661696c65641b5b306d00009f
:103b5c0064746d693a6d6963726f63686970486506
:103b6c00617274526174655669657765723a437215
:103b7c007970746f417574685f3675733b310000f2
:020000040000fa
:103b8c00f0b585b00400b84b1b78012b06d9032b7c
:103b9c0000d19ee0b44b187805b0f0bdb34b1b7848
:103bac00db07f7d522f088f9002806d1b04a183285
:103bbc000321013013f0e8fdece720000c3022f07b
:103bcc007bf9002806d1aa4a34320321013013f0c4
:103bdc00dbfddfe7a74d0122290020001bf0f4ffdd
:103bec006e1c2b6a1802000c310020f046ff82b2ca
:103bfc00310020001bf0e8ff691d0a2220001bf099
:103c0c00e3ff29000f31022220001bf0ddff2b699e
:103c1c001b0a2e7d36061e43300022f0bbf982b201
:103c2c00310020001bf0d0ffea7e2b7f1b021343d8
:103c3c006a691202120c13432bd08e4d29001531d8
:103c4c00022220001bf0c0ff6b691b021b0c1a0226
:103c5c001b0a1a4392b2eb7da96909021943200091
:103c6c001bf0b2ff29001b31022220001bf0acff1d
:103c7c00ea7e2b7f1b0213431a021b0a1a4392b2d1
:103c8c00eb691b0a2021695c0906194320001bf013
:103c9c009bff200021f0e9fc002813d0734a137815
:103cac0001218b4313700023734a002173481df0cc
:103cbc0087f9734b18606c4b02221a70714b0022ff
:103ccc001a7067e76a4a50320321012013f05cfd39
:103cdc0060e7664b1a78002a00d15be711000123dc
:103cec00134000d056e701250133dbb218000a005f
:103cfc001a411542f8d001238340dbb2082b00d1c6
:103d0c0051e11bd9102b00d110e2202b00d041e740
:103d1c005d4b1b78002b00d13ce700235a4a1370f3
:103d2c0003aa1380200022f0c7f8002814d1504aaf
:103d3c0018320321013013f027fd2be7042b00d0a0
:103d4c0028e7524b1b68002b46d0494a68320121a8
:103d5c00032013f019fd1de720000c3022f0acf805
:103d6c00002806d1424a34320321013013f00cfdf5
:103d7c0010e703a90b780f221a4040235b421a4329
:103d8c000833ff33134006229343053a93430b70d9
:103d9c0000234b7020001bf017ff012202ab591db2
:103dac0020001bf011ff200021f05ffc002800d147
:103dbc00f0e62e4a137820218b431370344a117885
:103dcc0010230b43137001232b4a002131481df0a3
:103ddc00f7f8314b1860dde6304b186821f0c4fd64
:103dec0020f0d2fc051e22d0200022f065f800281d
:103dfc002cd11f4a18320321013013f0c5fc1d4b86
:103e0c00db681b021b0c00d1c4e61a021b0a13430d
:103e1c009bb2013b5a01d21a9200d218d200002355
:103e2c0000211f481df0ccf81c4b1860b2e61d4c4d
:103e3c00220008320321012013f0a6fc23002c33ae
:103e4c0020003430184a19491ff0d2fb20000c30e6
:103e5c0022f032f800282bd1054a343203210130ec
:103e6c0013f092fccbe7c046e83d00203c3d00201f
:103e7c00ecca0000003a0020307500007d600200a2
:103e8c00483d0020e73d0020e93d0020443d002056
:103e9c00383d0020ad600200503d00204c3d00201c
:103eac00896002006ccb0000b45e02006d03000060
:103ebc000122290020001bf087fe6e1ceb7c287d64
:103ecc0000021843310020f0d8fd82b231002000ee
:103edc001bf07afe691d022220001bf075fe6a7928
:103eec00ab791b0213431a021b0a1a4392b2e979eb
:103efc002b7a1b020b43697a09040b43a97a090636
:103f0c00194320001bf060fe2a7806231340022b75
:103f1c002ed06b7baa7b12021a43e97b2b7c1b02f3
:103f2c000b43697c09040b43a97c09061943200047
:103f3c001bf04afec64b1b785b0703d42b781b0780
:103f4c0000d45ce7200021f090fb002827d0c14b67
:103f5c001b68002b19d02a7806231340022b1ad188
:103f6c00bd4b1d60bd4a117820230b43137046e7ef
:103f7c0029000c31012220001bf026fe0122290011
:103f8c000b3120001bf020fec3e7b14a137804214b
:103f9c008b431370dfe7280021f08efe2fe72800fb
:103fac0021f08afe2be7ae4b186821f0ddfc2000d7
:103fbc0021f082ff00281dd1aa4a183203210130ba
:103fcc0013f0e2fba84bdb681b021b0c00d1e1e5f4
:103fdc001a021b0a13439bb2013b5a01d21a9200dc
:103fec00d218d20000230021a0481cf0e9ff9c4b02
:103ffc001860cfe520000c3021f05eff002806d1c0
:10400c00984a34320321013013f0befbdae7984da5
:10401c000122290020001bf0d7fd6e1ca88b31005b
:10402c0020f02bfd82b2310020001bf0cdfda91d2c
:10403c00012220001bf0c8fd691d012220001bf08d
:10404c00c3fdea792b7a1b02134353d0884de91d2b
:10405c00022220001bf0b8fdea792b7a1b021343d5
:10406c001a021b0a1a4392b2ab681b0a297b090677
:10407c00194320001bf0a8fd29000d31012220005e
:10408c001bf0a2fdeb89002b34d0794d29000e31a9
:10409c00022220001bf098fdeb891a021b0a1a431e
:1040ac0092b2296920001bf08ffd290014310122e6
:1040bc0020001bf089fd6b691b021b0c1ad06c4d88
:1040cc0029001531022220001bf07efd6b691b02ba
:1040dc001b0c1a021b0a1a4392b2eb7da969090246
:1040ec00194320001bf070fd29001b310122200018
:1040fc001bf06afd200021f0b8fa002800d161e71e
:10410c00534a137808218b431370544a13780421b3
:10411c000b431370574b00221a700023564a002190
:10412c0056481cf04dff564b18604be74c4b18682b
:10413c0021f01afc0194200021f0befe00281dd1b4
:10414c00484a18320321013013f01efb464bdb6842
:10415c001b021b0c00d11de51a021b0a13439bb258
:10416c00013b5a01d21a9200d218d200002300212e
:10417c003e481cf025ff3a4b18600be520000c3034
:10418c0021f09afe002806d1364a34320321013040
:10419c0013f0fafadae73b4f0122390020001bf04a
:1041ac0013fd7e1cbb691802000c310020f065fc6d
:1041bc0082b2310020001bf007fdb91d0122200046
:1041cc001bf002fd791d012220001bf0fdfc0737be
:1041dc0000262c4d0222390001981bf0f5fc7300cf
:1041ec00991949006918c8790a7a12020243110216
:1041fc00120a0a4392b29b195b00eb18587a598940
:10420c0009020843197b0906014301981bf0dcfce9
:10421c0001360637032eddd1200021f026fa0028c6
:10422c0094d00b4a137810218b4313700b4a1378dc
:10423c0008210b431370144b00221a7000230e4af2
:10424c00002112481cf0bcfe114b18607ee7c046e2
:10425c003c3d0020403d0020443d0020383d0020e6
:10426c004c3d0020ecca0000003a0020896002009e
:10427c00e83a0020eb3d002030750000956002000c
:10428c00543d00205c3b0020ec3d0020a16002006e
:04429c00583d002069
:020000040000fa
:1042a000f8b54746ce460e034d00760acc0f410fb7
:1042b00031438946190380b5490a570f5e000f4301
:1042c0006d0dc000760ddb0fb846d2009c4200d1c8
:1042d000a3e0af1b002f00dc83e0002e00d1c1e083
:1042e000c94b9d4200d188e1802341461b041943fc
:1042f0008846382f00dd5de11f2f00dd07e2202317
:1043000011004646db1b9e40f9409a400e43414651
:10431000531e9a41f9404b465b1a99463243871a1d
:10432000b84280414b464142591a0b0200d4d7e0b3
:1043300049024e0a002e00d12fe130001ef040ff4e
:104340000300083b20223900d21a9e40d1409f40f2
:104350000e439d4200dd1ce15d1b6b1c1f2b00dd2d
:10436000aae12021c91a3d0030008f408840dd407d
:10437000791e8f4131002843d940002507437b0730
:1043800009d00f233b40042b05d03b1dbb42bf414e
:104390007f42c9191f000b0200d4a4e06a1c9a4b8b
:1043a00055056d0d9a4200d1aae0984aff080a40cf
:1043b0005007384384465202120b00211203130b9c
:1043c0000a0d12051a43924b2d0513402b435b0037
:1043d000e4075b082343604619000cbc90469946ed
:1043e000f8bd002f4cd18b4e691c314200d0e7e064
:1043f0004646494616430143b446002d00d00ee21e
:10440000002900d1cfe1002e00d010e24b46c008b9
:104410005f070743bc46d9086de0ab1b002b00dcef
:104420009ee0002e3ed078498d4200d1e5e080210b
:104430003e0009040e43b046382b00dd4be11f2b34
:1044400000dc81e1190046462039ce40202b04d003
:104450004021cb1a414699400a4317007a1e9741e2
:1044600037433de14346134300d1bde07b1e002ba3
:1044700000d1b2e164498f4200d1a7e11f0038e7c3
:10448000771b002d00d0efe04946014300d177e1d2
:10449000791e002900d119e25b4ca74200d14be202
:1044a0000f00eae03900114300d1a0e1591e0029b4
:1044b00000d158e1544eb34200d187e10b00bbe775
:1044c000514b9e4200d132e28218824280414946dd
:1044d0003500414440420918cf07520817434908a4
:1044e0007b0700d04de74807ff080743bc46c908d3
:1044f000454b9d4229d00a036d05120b6d0d5ce7fb
:104500001500002300229c4657e74b465f07d90859
:104510004346c00813433843002b00d1f6e1802303
:104520001b03194208d04546ed081d4204d14346fd
:104530002900d20858071043ca00430f1a43c0008d
:104540005707c0080743bc46d10863460b4300d158
:1045500012e2802212030a431203120b2a4d2ce7a7
:10456000002b59d12b4b6e1c1e42a9d14b46034345
:10457000002d00d00de1002b00d1b2e13b00134330
:1045800000d0b5e14b46c0085f0738438446d908e0
:10459000b1e71e49ed1a3140f1e638001ef010fe79
:1045a000030018331f2b00dccce63e0008388640a1
:1045b0000027cee6434613431a00571eba41aee623
:1045c00049464646871a8e1bb84289414942761aa7
:1045d000310200d519e13b0033439c4600d0a9e6e7
:1045e00000210025002486e74b46c0085b071843de
:1045f0004b468446d9083d007ae74b46c0085f0722
:104600000743bc46d908a0e7ff070000ffff7fff74
:10461000ffff0f80fe070000731b002d00d185e017
:10462000d8498e4200d173e180214d4609040d43e3
:10463000a946382b00dd0ee11f2b00dd84e120218f
:10464000c91a05004f4688408f40411e884149469f
:10465000dd40d9402f4307438844bf189742924119
:1046600051424144350040e0c6498e4200d1a5e0a8
:1046700080214c4609040c43a146382f00ddbee0e2
:104680001f2f00ddede020210500c91b4c468840ae
:104690008c40fd40411e884149462c432043f9404f
:1046a0004446611a8846171aba429241414652421c
:1046b000891a1c00350038e630001f3de840202be9
:1046c00003d04021cb1a9e4037437b1e9f410021df
:1046d0000743002504e7434613431f007a1e974112
:1046e0003f1887428041414249440b0200d4f7e61b
:1046f000a44b01359d4200d103e7a34a7b080a4041
:1047000001210f401f43d3071f43510837e63b00e9
:104710004646203bde40202f04d040234146db1b91
:1047200099400a43571eba413243f8e549460143ce
:1047300000d1f4e0591e002900d115e1914dab42a2
:1047400000d1e5e00b0074e72021c91a16004746a6
:104750008a408f40511e8a414146de40d94037434e
:1047600017438944bce78718494687429b41414427
:104770005b42c91801250b0200d4b1e60225bce753
:104780004146d208480702439446c9081c003d0030
:10479000aee6002b00d0b8e63b00d2087f071743f7
:1047a000bc46d908d1e6002e00d18ce04146d208a3
:1047b0004f073a439446c9081c009ce64146d2087c
:1047c0004f073a439446c9081c00bee64b46c00852
:1047d0005f0738438446d908b7e6871a4b464246f6
:1047e000b8428041991a4042091a01259de54a467e
:1047f000c008570738438446d1081d0078e649466b
:1048000001430800471eb8414de7171a4146484684
:10481000ba42b641091a76428e1b1c008ae500296d
:104820002ed1002ecad180210024090391e64946e9
:104830004646871a8e1bb84289414942711a0e02b8
:104840003cd5171a41464846ba429241091a52428b
:10485000891a1c0093e54b4603431f00781e8741cd
:10486000fbe639004c462039cc40202f04d04021b3
:104870004d46c91b8d402843411e8841204312e705
:104880004946c0084d072843c908002e3ed0802560
:104890002d03294208d04646f7082f4204d11c00b8
:1048a0003900d20870071043ca00430f1a43c000f2
:1048b000c008570738438446d10846e63b000b43ff
:1048c0009c4600d00ce60021002414e6171a41464d
:1048d0004846ba429241091a5242891a1c000125df
:1048e00023e53b00d2087f071743bc46d90802e600
:1048f0008718494687429b4141445b42c9180b02d5
:1049000000d4ede5204b01251940e9e584461ce67d
:104910003b00d2087f073a439446d90815e6390090
:10492000d2087f073a439446c9081d00e0e50023fa
:10493000350000229c4640e54146d2084f07174308
:10494000bc46c9081c0000e619004d462039cd4080
:10495000202b04d04021cb1a494699400843070038
:10496000781e87412f4378e68718494697429b4136
:1049700041445b42c918fde60023024d9c461a00e3
:0c4980001be5c046ff070000ffff7fffa3
:020000040000fa
:10498c005b7370695f636d645d3a204661696c6549
:10499c006420636d642077726974652c2062757372
:1049ac00206572726f722e2e2e0d0a005b73706969
:1049bc005f636d645f7273705d3a204661696c650c
:1049cc006420636d6420726573706f6e7365207202
:1049dc006561642c20627573206572726f722e2e65
:1049ec002e0d0a005b7370695f636d645f72737088
:1049fc005d3a204661696c656420636d6420726564
:104a0c0073706f6e736520726561640a000000003c
:104a1c005b7370695f646174615f726561645d3a58
:104a2c00204661696c6564206461746120726573f1
:104a3c00706f6e736520726561642c2062757320d3
:104a4c006572726f722e2e2e0d0a00005b737069e8
:104a5c005f646174615f726561645d3a204661698f
:104a6c006c6564206461746120726573706f6e7321
:104a7c006520726561642e2e2e2825303278290d22
:104a8c000a0000005b7370695f646174615f72653a
:104a9c0061645d3a204661696c656420646174618f
:104aac0020626c6f636b20726561642c206275737d
:104abc00206572726f722e2e2e0d0a005b73706958
:104acc005f646174615f726561645d3a204661691f
:104adc006c6564206461746120626c6f636b20434d
:104aec00524320726561642c20627573206572726a
:104afc006f722e2e2e0d0a005b7370695f726561ea
:104b0c00645f7265675d3a204661696c6564206319
:104b1c006d642c20726561642072656720282530d5
:104b2c00386c78292e2e2e0d0a0000005b737069ec
:104b3c005f726561645f7265675d3a204661696c9e
:104b4c00656420636d6420726573706f6e73652c81
:104b5c0020726561642072656720282530386c7876
:104b6c00292e2e2e0d0a00005b7370695f72656131
:104b7c00645f7265675d3a204661696c65642064a8
:104b8c0061746120726561642e2e2e0d0a00000086
:104b9c00526573657420616e64207265747279203d
:104bac00256420256c780d0a000000005b73706989
:104bbc005f77726974655f7265675d3a20466169fb
:104bcc006c656420636d642c207772697465207247
:104bdc00656720282530386c78292e2e2e0d0a007a
:104bec005b7370695f77726974655f7265675d3a54
:104bfc00204661696c656420636d64207265737016
:104c0c006f6e73652c2077726974652072656720ee
:104c1c00282530386c78292e2e2e0d0a0000000025
:104c2c00526573657420616e6420726574727920ac
:104c3c00256420256c7820256c780d0a0000000076
:104c4c005b6e6d5f7370695f696e69745d3a204667
:104c5c0061696c656420696e7465726e616c20723a
:104c6c006561642070726f746f636f6c2077697408
:104c7c006820435243206f6e2c20726574727969e0
:104c8c006e67207769746820435243206f66662ee6
:104c9c002e2e0d0a000000005b6e6d5f7370695f55
:104cac00696e69745d3a204661696c656420696e51
:104cbc007465726e616c20726561642070726f74c1
:104ccc006f636f6c2e2e2e0d0a0000005b6e6d5ff5
:104cdc007370695f696e69745d3a204661696c65d1
:104cec006420696e7465726e616c2077726974658c
:104cfc002070726f746f636f6c207265672e2e2e2e
:104d0c000d0a00005b6e6d5f7370695f696e69748c
:104d1c005d3a204661696c20636d64207265616444
:104d2c0020636869702069642e2e2e0d0a00000025
:104d3c005b6e6d5f7370695f696e69745d3a206359
:104d4c006869706964202825303878290d0a0000bc
:104d5c005b7370695f726561645f626c6f636b5dde
:104d6c003a204661696c656420636d642c20726521
:104d7c00616420626c6f636b20282530386c782955
:104d8c002e2e2e0d0a0000005b7370695f72656138
:104d9c00645f626c6f636b5d3a204661696c65643d
:104dac0020636d6420726573706f6e73652c207256
:104dbc0065616420626c6f636b20282530386c78d9
:104dcc00292e2e2e0d0a00005b7370695f726561cf
:104ddc00645f626c6f636b5d3a204661696c6564fd
:104dec0020626c6f636b2064617461207265616416
:104dfc002e2e2e0d0a000000526573657420616e14
:104e0c006420726574727920256420256c782025c5
:104e1c00640d0a005b7370695f77726974655f6219
:104e2c006c6f636b5d3a204661696c656420636de1
:104e3c00642c20777269746520626c6f636b202818
:104e4c002530386c78292e2e2e0d0a005b73706974
:104e5c005f77726974655f626c6f636b5d3a204655
:104e6c0061696c656420636d6420726573706f6e2c
:104e7c0073652c20777269746520626c6f636b208c
:104e8c00282530386c78292e2e2e0d0a00000000b3
:104e9c005b7370695f646174615f77726974655d7f
:104eac003a204661696c6564206461746120626caf
:104ebc006f636b20636d642077726974652c20625c
:104ecc007573206572726f722e2e2e0d0a00000003
:104edc005b7370695f646174615f77726974655d3f
:104eec003a204661696c6564206461746120626c6f
:104efc006f636b2077726974652c20627573206503
:104f0c0072726f722e2e2e0d0a0000005b73706988
:104f1c005f646174615f77726974655d3a204661a4
:104f2c00696c6564206461746120626c6f636b20d2
:104f3c004352432077726974652c20627573206527
:104f4c0072726f722e2e2e0d0a0000005b73706948
:104f5c005f77726974655f626c6f636b5d3a204654
:104f6c0061696c656420626c6f636b206461746151
:104f7c002077726974652e2e2e0d0a005b73706992
:104f8c005f77726974655f626c6f636b5d3a204624
:104f9c0061696c656420627573206572726f722e24
:104fac002e2e0d0a000000005b7370695f7772692a
:104fbc0074655f626c6f636b5d3a204661696c650a
:104fcc0064206461746120726573706f6e73652008
:104fdc00726561642c2025782025782025780d0aaf
:044fec000000c046bb
:020000040000fa
:104ff000f0b557464e464546de46e0b581460500cb
:105000000c03480085b092461f00240b400dce0fc4
:10501000002800d1ade0864b984200d1c8e06b0f6c
:10502000e4001c4380231b0423439846814bed007e
:105030009b4600239946834400933c037b005046e3
:10504000240b5b0dff0f002b00d177e0784a9342d1
:1050500018d07849420f8c46e40014435946802208
:1050600063441204cb1a14439b46c2000020330051
:105070007b409a464b460f2b00d9ede06e499b00d2
:10508000cb589f466d4b52469c462243e344002a30
:1050900000d0aee04946022319438946002402208d
:1050a000e5e73e00a04615000090009b022b00d1d2
:1050b0000be2032b00d19de1012b1fd0b246604fc4
:1050c0005f44002f00dcdae16b0700d00ee2ed0850
:1050d0004346db0106d542465a4b80271a4090468c
:1050e000ff005f44584b9f4224dc43465b071d434f
:1050f00043467f055c02240b7b0d03e0b246002390
:105100000024002500212403270b0c0d24053c431b
:105110001f054e4b28001c40534627437f00db07ea
:105120007f081f43390005b03cbc90469946a24613
:10513000ab46f0bd3e4b00240025e3e75246224338
:1051400050d0002c00d18ae120001ef039f8020076
:105150000b3a1d2301009b1a52460839da408c4055
:10516000144352468a403a4b58449b46834400209d
:105170007de74b46234398462cd0002c00d15ee1be
:1051800020001ef01df802000b3a1d239b1a4a4610
:105190000100da4008398c4013004d4623439846fd
:1051a0008d402c4b1b1a9b4600239946009344e7e5
:1051b0004b462343984606d108239946063b0025d3
:1051c0008346009339e70c239946093ba046834662
:1051d000009332e70423994600239b4601330025c0
:1051e00000932ae7494601231943894600240120f8
:1051f0003de74a4603231a4391460320524636e7c9
:10520000002380249a4624030025094b7ae7802353
:1052100041461b03194200d1ece01c4200d0e9e0fa
:105220001c432403240bba461500014b6ae7c04611
:10523000ff07000001fcffff882c020001f8ffffc0
:10524000ff030000fffffffefe070000ffff0f80cf
:10525000f30300000dfcffff444500d2d6e000d16f
:10526000d1e001235b429c462e0040460025e344ea
:10527000130e24021c431302994623041b0c210c19
:105280000093019110f0e0fb009a0b044243310cb3
:10529000070019438a4207d90919013f8c4203d8f4
:1052a0008a4201d9871e0919881a019910f0ccfb8e
:1052b00009048c4631046646009a090c42430300f7
:1052c00031438a4204d90919013b8c4200d807e1d5
:1052d0003f041f43891a4b464a461e0c1204380ce1
:1052e0000296160c3200039646433b04b84637003c
:1052f000029e1b0c5a4373437043db19160cf618bd
:10530000b74203d980235b029c466044330c1204ed
:105310003604120c1818b618814200d280e07cd0f6
:10532000ae1b091ab54280419b4f4042081a5f44a8
:10533000844200d1fde0019910f086fb009a0b0435
:105340004243310c050019438a4207d90919013d2e
:105350008c4203d88a4201d9851e0919881a0199fd
:1053600010f072fb09048c4631046646009a090c61
:105370004243030031438a4207d90919013b8c4259
:1053800003d88a4201d9831e0919039e2d041d43a7
:105390003300891a2a04120c53430093029b280cf1
:1053a00046435a435843009b92191b0c9c46624447
:1053b000964203d980235b029c466044009b160cf6
:1053c0001b0412041b0c3018d218814206d302d0e1
:1053d00001231d4375e6002a00d172e661186b1e99
:1053e000a14200d290e0814200d2a8e000d1cfe0fb
:1053f0001d00ede78024434624031c432403240bb3
:10540000b246664b7ee6aa4200d92ae74346de074b
:1054100058086b081e43ed072ae7b54200d37fe723
:1054200043464d445a1e4d459b415b421b19c918ca
:105430008c424fd2884271d86ed0904670e7484671
:105440001df0befe03001a00153220301c2a00dcbd
:105450009be64a46083b9a4000259046a1e61df08f
:10546000affe03001a00153220301c2a00dc70e663
:105470005446083b00229c4075e601256d420121ff
:10548000c91b382900dd3ae61f2962dc2a004346a1
:105490004348ca4058448340854013436a1e95419f
:1054a00044462b43cc405a0709d00f221a40042a05
:1054b00005d01a1d9a429b415b42e4181300220258
:1054c0005fd50123002400251ce6b246334b00249f
:1054d000002517e68c42b0d1a945abd990461fe70d
:1054e0008a4200d8f4e6831e0919f1e60f232b4007
:1054f000042b00d1ebe505235b42ab429b41043515
:105500005b42ed089844e3e51d00814200d05fe76f
:10551000914500d05ce7d4e5ae428ed902234d44dc
:105520005b429c464d459b415b421b19e044c918b8
:10553000f6e6002fa1dd012300259844c8e54b467f
:105540005e004e459b415b421c19023d0919b14664
:10555000dbe71f2243465242d71bfb40202904d0e1
:10556000444610485844844025436a1e95412b43c5
:10557000072500241d4007d00f2200241a40042aca
:1055800097d165076402240bdb081d430023b9e5ae
:105590009145d4d31d00bbe7ff030000ff070000c7
:0855a0001e0400003e0400009f
:020000040000fa
:1055a80082b0f0b5de4657464e464546e0b5cbb02c
:1055b8000600089109921d005593579c569f002894
:1055c80000d193e03368002b05d07268db43934227
:1055d80001d3002a02dc20f0f9fc8047089b002b4d
:1055e80005d0099adb43934201d3002a02da20f05e
:1055f800edfc8047002d04d0eb43bb4201d3002fc4
:1056080002da20f0e3fc8047002c73d0ca4b190063
:105618000c9318231a000d93013b009300232ca828
:105628001bf080fd2c9a2d9b0898099917f0acfb6c
:10563800002800d054e20899099ac0481af030fcb2
:105648005599569abe481af02bfc2aae2d9b0899fc
:10565800099a300020f0abf900232993b64b443364
:1056680029aa02920196012200922a99726827a813
:1056780015f0daff220008322798289913f028fb42
:10568800002800da31e2ac4a48320c232a982b99d8
:1056980017f07afb431c31d10023e36029003a005c
:1056a80000230ca81bf082fb002800da1de20ca8de
:1056b80009f0c2fb002800da17e20cab1b7a012bb9
:1056c8003dd1200010303022002120f027fc00239b
:1056d8009946059304939b4b3c22944663449a460f
:1056e800984b1832944663449b462fe020f06efc9a
:1056f800804767e720f06afc804787e72aae030007
:105708000c332a992b9a06a820f051f906ab3200df
:1057180003cb03c2884b583329aa0292019601226f
:1057280000922a99726827a815f07eff22000c3291
:105738002798289913f0ccfa0028afdad5e18248e7
:10574800d3e10cab220003cb03c204950ca809f0eb
:1057580073fb002800daabe10cab1b7a022b00d1fb
:10576800a6e175495c310b220ca808f07bfc051eec
:105778000bd00ca809f060fb002800dab5e10cabef
:105788001b7a062bddd07148afe16b4968310622e0
:105798000ca808f067fc0500061e5ed00ca809f0ee
:1057a8004bfb002800daa0e10cab1b7a062b00d0db
:1057b80098e10c9e0d9f002e04d0f343bb4201d309
:1057c800002f02da20f002fc8047002f00d18be185
:1057d800092f09d0082f13d0062f1cd00a2f25d047
:1057e800082f2ed0584880e15349092270313000e3
:1057f8001ff0aafe0028edd10123a3720595a5e7a5
:105808004d4908227c3130001ff09efe0028e3d16c
:105818000223a372f2e74b490622083130001ff039
:1058280093fe0028dad10323a372e7e745490a2249
:10583800103130001ff088fe0028d1d10023a37258
:10584800dce7404908221c3130001ff07dfe0028ab
:1058580000d054e10423a372d0e73a492831112239
:105868000ca808f0fffb071e19d1394908310a2294
:105878000ca808f0f7fb002800d1c8e00ca809f034
:10588800dbfa002800da30e10cab1b7a062b00d0db
:1058980039e10caa2300303303ca03c356e70ca826
:1058a80009f0cafa002800da1fe10cab1b7a012bb9
:1058b80000d026e10ca809f0bffa002800daa1e020
:1058c8000cab1b7a022b00d19ce051460b220ca892
:1058d80008f0c8fb8046002814d00ca809f0acfae0
:1058e800002800da01e10cab1b7a062b00d010e18e
:1058f8000caa2300103303ca03c3002e00d025e7e7
:105908004546d7e70f49483108220ca808f0aafbfa
:1059180000281fd00ca809f08ffa002800dae4e06c
:105928000cab1b7a062b00d0f5e00caa2300183329
:1059380003ca03c327e0c046781d01000100060022
:1059480002000600f81d0100050001800400018026
:10595800781e010059460c220ca808f083fb002889
:1059680016d00ca809f068fa002800dabde00cabe4
:105978001b7a062b00d0d0e00caa2300283303cad8
:1059880003c3002e96d0002d00d0dfe63e0091e73d
:105998006449643116220ca808f064fb002810d072
:1059a8000ca809f049fa002800da9ee00cab1b7a33
:1059b800062b00d0b3e00caa2300383303ca03c374
:1059c800dfe758497c3109220ca808f04bfb002876
:1059d8000bd00ca809f030fa002806db210024318e
:1059e8000ca815f0cbfe002805da0ca81cf0a2faca
:1059f8000028c6da79e0fa218900606a0ff09aff78
:105a08002084bee7b54200d1a0e647486de047498b
:105a1800143107220ca808f025fb00280ed00ca88a
:105a280009f00afa002860db0cab1b7a062b6cd154
:105a38000caa2300283303ca03c387e63b491c3159
:105a48000c220ca808f00efb00280ed00ca809f0b8
:105a5800f3f9002849db0cab1b7a062b57d10caaab
:105a68002300383303ca03c370e62e497c31092268
:105a78000ca808f0f7fa051e0bd00ca809f0dcf901
